{
  "contractName": "FlashSale",
  "abi": [
    {
      "inputs": [
        {
          "internalType": "bytes32",
          "name": "_registeredUsersMerkleRoot",
          "type": "bytes32"
        },
        {
          "internalType": "bytes32",
          "name": "_existingUsersMerkleRoot",
          "type": "bytes32"
        }
      ],
      "stateMutability": "nonpayable",
      "type": "constructor"
    },
    {
      "anonymous": false,
      "inputs": [
        {
          "indexed": false,
          "internalType": "uint8",
          "name": "productId",
          "type": "uint8"
        },
        {
          "indexed": false,
          "internalType": "uint8",
          "name": "discountOffered",
          "type": "uint8"
        },
        {
          "indexed": false,
          "internalType": "uint256",
          "name": "price",
          "type": "uint256"
        }
      ],
      "name": "LogPurchaseDetails",
      "type": "event"
    },
    {
      "inputs": [],
      "name": "existingUsersMerkleRoot",
      "outputs": [
        {
          "internalType": "bytes32",
          "name": "",
          "type": "bytes32"
        }
      ],
      "stateMutability": "view",
      "type": "function",
      "constant": true
    },
    {
      "inputs": [
        {
          "internalType": "uint8",
          "name": "",
          "type": "uint8"
        }
      ],
      "name": "productPrice",
      "outputs": [
        {
          "internalType": "uint256",
          "name": "",
          "type": "uint256"
        }
      ],
      "stateMutability": "view",
      "type": "function",
      "constant": true
    },
    {
      "inputs": [],
      "name": "registeredUsersMerkleRoot",
      "outputs": [
        {
          "internalType": "bytes32",
          "name": "",
          "type": "bytes32"
        }
      ],
      "stateMutability": "view",
      "type": "function",
      "constant": true
    },
    {
      "inputs": [
        {
          "internalType": "address",
          "name": "",
          "type": "address"
        }
      ],
      "name": "userProductInfo",
      "outputs": [
        {
          "internalType": "uint8",
          "name": "productId",
          "type": "uint8"
        },
        {
          "internalType": "uint8",
          "name": "discount",
          "type": "uint8"
        },
        {
          "internalType": "uint256",
          "name": "price",
          "type": "uint256"
        }
      ],
      "stateMutability": "view",
      "type": "function",
      "constant": true
    },
    {
      "inputs": [
        {
          "internalType": "uint256",
          "name": "registeredUserPath",
          "type": "uint256"
        },
        {
          "internalType": "uint256",
          "name": "existingUserPath",
          "type": "uint256"
        },
        {
          "internalType": "bytes32[]",
          "name": "registeredUsersWitnesses",
          "type": "bytes32[]"
        },
        {
          "internalType": "bytes32[]",
          "name": "existingUsersWitnesses",
          "type": "bytes32[]"
        },
        {
          "internalType": "uint8",
          "name": "_productId",
          "type": "uint8"
        }
      ],
      "name": "buyAppleProduct",
      "outputs": [
        {
          "internalType": "uint8",
          "name": "productId",
          "type": "uint8"
        },
        {
          "internalType": "uint8",
          "name": "discount",
          "type": "uint8"
        },
        {
          "internalType": "uint256",
          "name": "price",
          "type": "uint256"
        }
      ],
      "stateMutability": "nonpayable",
      "type": "function"
    }
  ],
  "bytecode": "0x608060405234801561001057600080fd5b50604051610f37380380610f378339818101604052604081101561003357600080fd5b81019080805190602001909291908051906020019092919050505081600081905550806001819055506753444835ec58000060046000600160ff168152602001908152602001600020819055506729a2241af62c000060046000600260ff168152602001908152602001600020819055506798a7d9b8314c000060046000600360ff16815260200190815260200160002081905550677ce66c50e284000060046000600460ff16815260200190815260200160002081905550670de0b6b3a764000060046000600560ff168152602001908152602001600020819055505050610e16806101216000396000f3fe608060405234801561001057600080fd5b50600436106100575760003560e01c8063224d48d11461005c5780637131368e146101f757806375a95e3514610215578063ba8497d21461025a578063d83e5d27146102cc575b600080fd5b6101c7600480360360a081101561007257600080fd5b810190808035906020019092919080359060200190929190803590602001906401000000008111156100a357600080fd5b8201836020820111156100b557600080fd5b803590602001918460208302840111640100000000831117156100d757600080fd5b919080806020026020016040519081016040528093929190818152602001838360200280828437600081840152601f19601f8201169050808301925050505050505091929192908035906020019064010000000081111561013757600080fd5b82018360208201111561014957600080fd5b8035906020019184602083028401116401000000008311171561016b57600080fd5b919080806020026020016040519081016040528093929190818152602001838360200280828437600081840152601f19601f820116905080830192505050505050509192919290803560ff1690602001909291905050506102ea565b604051808460ff1660ff1681526020018360ff1660ff168152602001828152602001935050505060405180910390f35b6101ff61093a565b6040518082815260200191505060405180910390f35b6102446004803603602081101561022b57600080fd5b81019080803560ff169060200190929190505050610940565b6040518082815260200191505060405180910390f35b61029c6004803603602081101561027057600080fd5b81019080803573ffffffffffffffffffffffffffffffffffffffff169060200190929190505050610958565b604051808460ff1660ff1681526020018360ff1660ff168152602001828152602001935050505060405180910390f35b6102d461099c565b6040518082815260200191505060405180910390f35b60008060006102f8336109a2565b6000600560003373ffffffffffffffffffffffffffffffffffffffff1673ffffffffffffffffffffffffffffffffffffffff16815260200190815260200160002060000160009054906101000a900460ff1660ff16146103a3576040517f08c379a000000000000000000000000000000000000000000000000000000000815260040180806020018281038252602b815260200180610d4a602b913960400191505060405180910390fd5b60008460ff161180156103ba575060058460ff1611155b61040f576040517f08c379a0000000000000000000000000000000000000000000000000000000008152600401808060200182810382526025815260200180610d756025913960400191505060405180910390fd5b600061041c898833610a48565b90506000548114610478576040517f08c379a0000000000000000000000000000000000000000000000000000000008152600401808060200182810382526026815260200180610d9a6026913960400191505060405180910390fd5b6000610485898833610a48565b90506001548114156105d35785600560003373ffffffffffffffffffffffffffffffffffffffff1673ffffffffffffffffffffffffffffffffffffffff16815260200190815260200160002060000160006101000a81548160ff021916908360ff1602179055506028600560003373ffffffffffffffffffffffffffffffffffffffff1673ffffffffffffffffffffffffffffffffffffffff16815260200190815260200160002060000160016101000a81548160ff021916908360ff16021790555061057661056f600460008960ff1660ff16815260200190815260200160002054603c610af8565b6064610b7e565b600560003373ffffffffffffffffffffffffffffffffffffffff1673ffffffffffffffffffffffffffffffffffffffff16815260200190815260200160002060010181905550600260008154809291906001019190505550610711565b85600560003373ffffffffffffffffffffffffffffffffffffffff1673ffffffffffffffffffffffffffffffffffffffff16815260200190815260200160002060000160006101000a81548160ff021916908360ff1602179055506014600560003373ffffffffffffffffffffffffffffffffffffffff1673ffffffffffffffffffffffffffffffffffffffff16815260200190815260200160002060000160016101000a81548160ff021916908360ff1602179055506106b86106b1600460008960ff1660ff168152602001908152602001600020546050610af8565b6064610b7e565b600560003373ffffffffffffffffffffffffffffffffffffffff1673ffffffffffffffffffffffffffffffffffffffff168152602001908152602001600020600101819055506003600081548092919060010191905055505b7ff8550271421d7bfc7b2a853da048814ebd322722d0b2adafe3f9557034d8435c600560003373ffffffffffffffffffffffffffffffffffffffff1673ffffffffffffffffffffffffffffffffffffffff16815260200190815260200160002060000160009054906101000a900460ff16600560003373ffffffffffffffffffffffffffffffffffffffff1673ffffffffffffffffffffffffffffffffffffffff16815260200190815260200160002060000160019054906101000a900460ff16600560003373ffffffffffffffffffffffffffffffffffffffff1673ffffffffffffffffffffffffffffffffffffffff16815260200190815260200160002060010154604051808460ff1660ff1681526020018360ff1660ff168152602001828152602001935050505060405180910390a1600560003373ffffffffffffffffffffffffffffffffffffffff1673ffffffffffffffffffffffffffffffffffffffff16815260200190815260200160002060000160009054906101000a900460ff16600560003373ffffffffffffffffffffffffffffffffffffffff1673ffffffffffffffffffffffffffffffffffffffff16815260200190815260200160002060000160019054906101000a900460ff16600560003373ffffffffffffffffffffffffffffffffffffffff1673ffffffffffffffffffffffffffffffffffffffff168152602001908152602001600020600101549450945094505050955095509592505050565b60005481565b60046020528060005260406000206000915090505481565b60056020528060005260406000206000915090508060000160009054906101000a900460ff16908060000160019054906101000a900460ff16908060010154905083565b60015481565b600073ffffffffffffffffffffffffffffffffffffffff168173ffffffffffffffffffffffffffffffffffffffff161415610a45576040517f08c379a000000000000000000000000000000000000000000000000000000000815260040180806020018281038252601f8152602001807f4572726f723a2055736572206973206f66207a65726f20616464726573732e0081525060200191505060405180910390fd5b50565b600080849050606084905060008490506000610a6382610bc8565b905060008090505b83518161ffff161015610ae95760018086161415610aab57610aa4848261ffff1681518110610a9657fe5b602002602001015183610c38565b9150610acf565b610acc82858361ffff1681518110610abf57fe5b6020026020010151610c38565b91505b60028581610ad957fe5b0494508080600101915050610a6b565b50809450505050509392505050565b600080831415610b0b5760009050610b78565b6000828402905082848281610b1c57fe5b0414610b73576040517f08c379a0000000000000000000000000000000000000000000000000000000008152600401808060200182810382526021815260200180610dc06021913960400191505060405180910390fd5b809150505b92915050565b6000610bc083836040518060400160405280601a81526020017f536166654d6174683a206469766973696f6e206279207a65726f000000000000815250610c83565b905092915050565b60008082604051602001808360ff1660ff1660f81b81526001018273ffffffffffffffffffffffffffffffffffffffff1673ffffffffffffffffffffffffffffffffffffffff1660601b815260140192505050604051602081830303815290604052805190602001209050919050565b600060018383604051602001808460ff1660ff1660f81b8152600101838152602001828152602001935050505060405160208183030381529060405280519060200120905092915050565b60008083118290610d2f576040517f08c379a00000000000000000000000000000000000000000000000000000000081526004018080602001828103825283818151815260200191508051906020019080838360005b83811015610cf4578082015181840152602081019050610cd9565b50505050905090810190601f168015610d215780820380516001836020036101000a031916815260200191505b509250505060405180910390fd5b506000838581610d3b57fe5b04905080915050939250505056fe4f6e6c7920312070726f6475637420616c6c6f77656420746f20627579206f6e20666c6173682073616c6550726f64756374206973206e6f7420617661696c61626c65206174207468652073746f726555736572206973206e6f74207265676973746572656420666f7220666c6173682073616c652e536166654d6174683a206d756c7469706c69636174696f6e206f766572666c6f77a26469706673582212204c4a9933dcd3d10526b711f47fd8c8236575f7ca3c477fffe12d9437485e515c64736f6c63430006000033",
  "source": "pragma solidity ^0.6.0;\n\nimport \"./SafeMath.sol\";\n\nstruct UserProduct {\n    uint8 productId;\n    uint8 discount;\n    uint256 price;\n}\n\ncontract FlashSale {\n    bytes32 public registeredUsersMerkleRoot; //  Merkle Root of list of registered users\n    bytes32 public existingUsersMerkleRoot; //  Merkle Root of list of existing users\n    uint256 users40Off; //  Track of number of users purchased the product at 40%\n    uint256 usersOff20; //  Track of number of users purchased the product at 20%\n\n    mapping(uint8 => uint256) public productPrice; //  mapping of productId with the price\n    mapping(address => UserProduct) public userProductInfo; //  mapping of user to the product details user purchased.\n\n    event LogPurchaseDetails(\n        uint8 productId,\n        uint8 discountOffered,\n        uint256 price\n    ); //  Event to log the Purchase Details of the product user has purchased.\n\n    //  Constructor to be called during deploying\n    constructor(\n        bytes32 _registeredUsersMerkleRoot,\n        bytes32 _existingUsersMerkleRoot\n    ) public {\n        registeredUsersMerkleRoot = _registeredUsersMerkleRoot; //  Set the registered users merkle root\n        existingUsersMerkleRoot = _existingUsersMerkleRoot; //  Set the exisiting users merkle root\n        //  Set the price of the 5 products.\n        // 0: No product\n        // 1: iPhone\n        // 2: iPad\n        // 3: Macbook Pro\n        // 4: Macbook Air\n        // 5: Airpods\n        productPrice[1] = 6 ether;\n        productPrice[2] = 3 ether;\n        productPrice[3] = 11 ether;\n        productPrice[4] = 9 ether;\n        productPrice[5] = 1 ether;\n    }\n\n    /// @notice Check user/owner address is zero or not\n    /// @param _address An address for whom to validate it is zero or not.\n    function validateCallerAddress(address _address) internal pure {\n        require(_address != address(0), \"Error: User is of zero address.\");\n        return;\n    }\n\n    /// @notice Calculates the leaf Hash of the user\n    /// @param leaf Address of the user\n    /// @return bytes32 Leaf Hash of the user\n    function leafHash(address leaf) private pure returns (bytes32) {\n        return keccak256(abi.encodePacked(uint8(0x00), leaf));\n    }\n\n    /// @notice Calculates the node Hash of the user\n    /// @param left Address or Witness of the user (based on data '0x00 and 0x01')\n    /// @param right Witness or address of the user (based on data '0x01 and 0x00')\n    /// @return bytes32 Node Hash of the user\n    function nodeHash(bytes32 left, bytes32 right)\n        private\n        pure\n        returns (bytes32)\n    {\n        return keccak256(abi.encodePacked(uint8(0x01), left, right));\n    }\n\n    /// @notice Calculates the candidate root of the user\n    /// @param  _path Path (Index) for the registered/existing user in the regisered/existing users list\n    /// @param  _witnesses Witnesses for the users from registered/ existing users list\n    /// @param _userAddress Address of the user\n    /// @return  bytes32 Candidate root of the user\n    function calculateCandidateRoot(\n        uint256 _path,\n        bytes32[] memory _witnesses,\n        address _userAddress\n    ) private pure returns (bytes32) {\n        // Assigning local variabless\n        // Reason: Security/No-assign-param”: Avoid assigning to function parameters\n        uint256 path = _path;\n        bytes32[] memory witnesses = _witnesses;\n        address userAddress = _userAddress;\n        bytes32 candidateRoot = leafHash(userAddress); //  Calculates the leaf Hash of the user\n        for (uint16 i = 0; i < witnesses.length; i++) {\n            if ((path & 0x01) == 1) {\n                //  Calculates the node hash of the user, if data is '0x01'\n                candidateRoot = nodeHash(witnesses[i], candidateRoot);\n            } else {\n                //  Calculates the node hash of the user, if data is '0x00'\n                candidateRoot = nodeHash(candidateRoot, witnesses[i]);\n            }\n            path /= 2;\n        }\n        return candidateRoot;\n    }\n\n    /// @notice Function to buy the product. Verifies user and Calculates product discounted price\n    /// @param  registeredUserPath  Path (Index) of the registered user from the registered users list (computed off-chain)\n    /// @param  existingUserPath    Path (Index) of the existing user from the existing users list (computed off-chain)\n    /// @param  registeredUsersWitnesses    Witnesses for the registered user based on the registered users list (computed off-chain)\n    /// @param  existingUsersWitnesses  Witnesses for the existing user based on the existing users list (computed off-chain)\n    /// @param  _productId  Product Id (1,2,3,4,5) of the product users wants to purchase\n    /// @return productId   Product Id of the product, user has purchased\n    /// @return discount    Discount offered to the user\n    /// @return price   Price (amount paid or amount to pay) of  the product by the user\n    function buyAppleProduct(\n        uint256 registeredUserPath,\n        uint256 existingUserPath,\n        bytes32[] memory registeredUsersWitnesses,\n        bytes32[] memory existingUsersWitnesses,\n        uint8 _productId\n    ) public returns (uint8 productId, uint8 discount, uint256 price) {\n        validateCallerAddress(msg.sender); //  Validate the user's address\n        require(\n            userProductInfo[msg.sender].productId == 0,\n            \"Only 1 product allowed to buy on flash sale\"\n        ); //  User can buy 1 product during the Flash Sale\n        require(\n            _productId > 0 && _productId <= 5,\n            \"Product is not available at the store\"\n        ); //  Check for the Product Id user want to buy\n\n        bytes32 registeredUserRoot = calculateCandidateRoot(\n            registeredUserPath,\n            registeredUsersWitnesses,\n            msg.sender\n        );\n        require(\n            registeredUserRoot == registeredUsersMerkleRoot,\n            \"User is not registered for flash sale.\"\n        ); //  Verifies the user is registered and user is present in the registered users list stored off-chain\n\n        bytes32 existingUserRoot = calculateCandidateRoot(\n            existingUserPath,\n            existingUsersWitnesses,\n            msg.sender\n        );\n\n        //  Verifies the user is existing user or not. If yes, then he will get 40% off else he will get 20% on the product\n        if (existingUserRoot == existingUsersMerkleRoot) {\n            userProductInfo[msg.sender].productId = _productId; //  Set the product Id\n            userProductInfo[msg.sender].discount = 40; //  Set the discount Offered\n            userProductInfo[msg.sender].price = SafeMath.div(\n                SafeMath.mul(productPrice[_productId], 60),\n                100\n            ); //  Set the amount has to pay/ has paid for the product\n            users40Off++; //  Increment the number of user purchased product at 40% off\n        } else {\n            userProductInfo[msg.sender].productId = _productId; //  Set the product Id\n            userProductInfo[msg.sender].discount = 20; //  Set the discount Offered\n            userProductInfo[msg.sender].price = SafeMath.div(\n                SafeMath.mul(productPrice[_productId], 80),\n                100\n            ); //  Set the amount has to pay/ has paid for the product\n            usersOff20++; //  Increment the number of user purchased product at 20% off\n        }\n\n        emit LogPurchaseDetails(\n            userProductInfo[msg.sender].productId,\n            userProductInfo[msg.sender].discount,\n            userProductInfo[msg.sender].price\n        ); //  Emit the event for the purchase details of the user\n        return (\n            userProductInfo[msg.sender].productId,\n            userProductInfo[msg.sender].discount,\n            userProductInfo[msg.sender].price\n        );\n    }\n}\n",
  "sourcePath": "/Users/guptaji/Documents/Blockchain Development/GBC (T175)/2nd Sem./advance_smart_contracts/bcdv_1013_advance_smart_contract_project/contracts/FlashSale.sol",
  "compiler": {
    "name": "solc",
    "version": "0.6.0+commit.26b70077.Emscripten.clang"
  },
  "schemaVersion": "3.0.21",
  "updatedAt": "2020-03-29T17:27:10.206Z",
  "networkType": "ethereum",
  "devdoc": {
    "methods": {
      "buyAppleProduct(uint256,uint256,bytes32[],bytes32[],uint8)": {
        "params": {
          "_productId": "Product Id (1,2,3,4,5) of the product users wants to purchase",
          "existingUserPath": "Path (Index) of the existing user from the existing users list (computed off-chain)",
          "existingUsersWitnesses": "Witnesses for the existing user based on the existing users list (computed off-chain)",
          "registeredUserPath": "Path (Index) of the registered user from the registered users list (computed off-chain)",
          "registeredUsersWitnesses": "Witnesses for the registered user based on the registered users list (computed off-chain)"
        },
        "returns": {
          "discount": "   Discount offered to the user",
          "price": "  Price (amount paid or amount to pay) of  the product by the user",
          "productId": "  Product Id of the product, user has purchased"
        }
      }
    }
  },
  "userdoc": {
    "methods": {
      "buyAppleProduct(uint256,uint256,bytes32[],bytes32[],uint8)": {
        "notice": "Function to buy the product. Verifies user and Calculates product discounted price"
      }
    }
  }
}